{
  "_format": "hh-sol-artifact-1",
  "contractName": "RoboPunksNFT",
  "sourceName": "contracts/RoboPunksNFT.sol",
  "abi": [
    {
      "inputs": [],
      "stateMutability": "payable",
      "type": "constructor"
    },
    {
      "anonymous": false,
      "inputs": [
        {
          "indexed": true,
          "internalType": "address",
          "name": "owner",
          "type": "address"
        },
        {
          "indexed": true,
          "internalType": "address",
          "name": "approved",
          "type": "address"
        },
        {
          "indexed": true,
          "internalType": "uint256",
          "name": "tokenId",
          "type": "uint256"
        }
      ],
      "name": "Approval",
      "type": "event"
    },
    {
      "anonymous": false,
      "inputs": [
        {
          "indexed": true,
          "internalType": "address",
          "name": "owner",
          "type": "address"
        },
        {
          "indexed": true,
          "internalType": "address",
          "name": "operator",
          "type": "address"
        },
        {
          "indexed": false,
          "internalType": "bool",
          "name": "approved",
          "type": "bool"
        }
      ],
      "name": "ApprovalForAll",
      "type": "event"
    },
    {
      "anonymous": false,
      "inputs": [
        {
          "indexed": true,
          "internalType": "address",
          "name": "previousOwner",
          "type": "address"
        },
        {
          "indexed": true,
          "internalType": "address",
          "name": "newOwner",
          "type": "address"
        }
      ],
      "name": "OwnershipTransferred",
      "type": "event"
    },
    {
      "anonymous": false,
      "inputs": [
        {
          "indexed": true,
          "internalType": "address",
          "name": "from",
          "type": "address"
        },
        {
          "indexed": true,
          "internalType": "address",
          "name": "to",
          "type": "address"
        },
        {
          "indexed": true,
          "internalType": "uint256",
          "name": "tokenId",
          "type": "uint256"
        }
      ],
      "name": "Transfer",
      "type": "event"
    },
    {
      "inputs": [
        {
          "internalType": "address",
          "name": "to",
          "type": "address"
        },
        {
          "internalType": "uint256",
          "name": "tokenId",
          "type": "uint256"
        }
      ],
      "name": "approve",
      "outputs": [],
      "stateMutability": "nonpayable",
      "type": "function"
    },
    {
      "inputs": [
        {
          "internalType": "address",
          "name": "owner",
          "type": "address"
        }
      ],
      "name": "balanceOf",
      "outputs": [
        {
          "internalType": "uint256",
          "name": "",
          "type": "uint256"
        }
      ],
      "stateMutability": "view",
      "type": "function"
    },
    {
      "inputs": [
        {
          "internalType": "uint256",
          "name": "tokenId",
          "type": "uint256"
        }
      ],
      "name": "getApproved",
      "outputs": [
        {
          "internalType": "address",
          "name": "",
          "type": "address"
        }
      ],
      "stateMutability": "view",
      "type": "function"
    },
    {
      "inputs": [
        {
          "internalType": "address",
          "name": "owner",
          "type": "address"
        },
        {
          "internalType": "address",
          "name": "operator",
          "type": "address"
        }
      ],
      "name": "isApprovedForAll",
      "outputs": [
        {
          "internalType": "bool",
          "name": "",
          "type": "bool"
        }
      ],
      "stateMutability": "view",
      "type": "function"
    },
    {
      "inputs": [],
      "name": "isPublicMintEnabled",
      "outputs": [
        {
          "internalType": "bool",
          "name": "",
          "type": "bool"
        }
      ],
      "stateMutability": "view",
      "type": "function"
    },
    {
      "inputs": [],
      "name": "maxPerWallet",
      "outputs": [
        {
          "internalType": "uint256",
          "name": "",
          "type": "uint256"
        }
      ],
      "stateMutability": "view",
      "type": "function"
    },
    {
      "inputs": [],
      "name": "maxSupply",
      "outputs": [
        {
          "internalType": "uint256",
          "name": "",
          "type": "uint256"
        }
      ],
      "stateMutability": "view",
      "type": "function"
    },
    {
      "inputs": [
        {
          "internalType": "uint256",
          "name": "quantity_",
          "type": "uint256"
        }
      ],
      "name": "mint",
      "outputs": [],
      "stateMutability": "payable",
      "type": "function"
    },
    {
      "inputs": [],
      "name": "mintPrice",
      "outputs": [
        {
          "internalType": "uint256",
          "name": "",
          "type": "uint256"
        }
      ],
      "stateMutability": "view",
      "type": "function"
    },
    {
      "inputs": [],
      "name": "name",
      "outputs": [
        {
          "internalType": "string",
          "name": "",
          "type": "string"
        }
      ],
      "stateMutability": "view",
      "type": "function"
    },
    {
      "inputs": [],
      "name": "owner",
      "outputs": [
        {
          "internalType": "address",
          "name": "",
          "type": "address"
        }
      ],
      "stateMutability": "view",
      "type": "function"
    },
    {
      "inputs": [
        {
          "internalType": "uint256",
          "name": "tokenId",
          "type": "uint256"
        }
      ],
      "name": "ownerOf",
      "outputs": [
        {
          "internalType": "address",
          "name": "",
          "type": "address"
        }
      ],
      "stateMutability": "view",
      "type": "function"
    },
    {
      "inputs": [],
      "name": "renounceOwnership",
      "outputs": [],
      "stateMutability": "nonpayable",
      "type": "function"
    },
    {
      "inputs": [
        {
          "internalType": "address",
          "name": "from",
          "type": "address"
        },
        {
          "internalType": "address",
          "name": "to",
          "type": "address"
        },
        {
          "internalType": "uint256",
          "name": "tokenId",
          "type": "uint256"
        }
      ],
      "name": "safeTransferFrom",
      "outputs": [],
      "stateMutability": "nonpayable",
      "type": "function"
    },
    {
      "inputs": [
        {
          "internalType": "address",
          "name": "from",
          "type": "address"
        },
        {
          "internalType": "address",
          "name": "to",
          "type": "address"
        },
        {
          "internalType": "uint256",
          "name": "tokenId",
          "type": "uint256"
        },
        {
          "internalType": "bytes",
          "name": "data",
          "type": "bytes"
        }
      ],
      "name": "safeTransferFrom",
      "outputs": [],
      "stateMutability": "nonpayable",
      "type": "function"
    },
    {
      "inputs": [
        {
          "internalType": "address",
          "name": "operator",
          "type": "address"
        },
        {
          "internalType": "bool",
          "name": "approved",
          "type": "bool"
        }
      ],
      "name": "setApprovalForAll",
      "outputs": [],
      "stateMutability": "nonpayable",
      "type": "function"
    },
    {
      "inputs": [
        {
          "internalType": "string",
          "name": "tokenURI_",
          "type": "string"
        }
      ],
      "name": "setTokenURI",
      "outputs": [],
      "stateMutability": "nonpayable",
      "type": "function"
    },
    {
      "inputs": [
        {
          "internalType": "bytes4",
          "name": "interfaceId",
          "type": "bytes4"
        }
      ],
      "name": "supportsInterface",
      "outputs": [
        {
          "internalType": "bool",
          "name": "",
          "type": "bool"
        }
      ],
      "stateMutability": "view",
      "type": "function"
    },
    {
      "inputs": [],
      "name": "symbol",
      "outputs": [
        {
          "internalType": "string",
          "name": "",
          "type": "string"
        }
      ],
      "stateMutability": "view",
      "type": "function"
    },
    {
      "inputs": [
        {
          "internalType": "bool",
          "name": "isPublicMintEnabled_",
          "type": "bool"
        }
      ],
      "name": "togglePublicMint",
      "outputs": [],
      "stateMutability": "nonpayable",
      "type": "function"
    },
    {
      "inputs": [
        {
          "internalType": "uint256",
          "name": "tokenId",
          "type": "uint256"
        }
      ],
      "name": "tokenURI",
      "outputs": [
        {
          "internalType": "string",
          "name": "",
          "type": "string"
        }
      ],
      "stateMutability": "view",
      "type": "function"
    },
    {
      "inputs": [],
      "name": "totalSupply",
      "outputs": [
        {
          "internalType": "uint256",
          "name": "",
          "type": "uint256"
        }
      ],
      "stateMutability": "view",
      "type": "function"
    },
    {
      "inputs": [
        {
          "internalType": "address",
          "name": "from",
          "type": "address"
        },
        {
          "internalType": "address",
          "name": "to",
          "type": "address"
        },
        {
          "internalType": "uint256",
          "name": "tokenId",
          "type": "uint256"
        }
      ],
      "name": "transferFrom",
      "outputs": [],
      "stateMutability": "nonpayable",
      "type": "function"
    },
    {
      "inputs": [
        {
          "internalType": "address",
          "name": "newOwner",
          "type": "address"
        }
      ],
      "name": "transferOwnership",
      "outputs": [],
      "stateMutability": "nonpayable",
      "type": "function"
    },
    {
      "inputs": [
        {
          "internalType": "address",
          "name": "",
          "type": "address"
        }
      ],
      "name": "walletMintCount",
      "outputs": [
        {
          "internalType": "uint256",
          "name": "",
          "type": "uint256"
        }
      ],
      "stateMutability": "view",
      "type": "function"
    },
    {
      "inputs": [],
      "name": "withdrawETH",
      "outputs": [],
      "stateMutability": "nonpayable",
      "type": "function"
    }
  ],
  "bytecode": "0x60806040526040518060400160405280600981526020017f526f626f50756e6b7300000000000000000000000000000000000000000000008152506040518060400160405280600281526020017f525000000000000000000000000000000000000000000000000000000000000081525081600090816200008191906200042a565b5080600190816200009391906200042a565b505050620000b6620000aa620000e260201b60201c565b620000ea60201b60201c565b662386f26fc10000600781905550600060088190555060646009819055506003600a8190555062000511565b600033905090565b6000600660009054906101000a900473ffffffffffffffffffffffffffffffffffffffff16905081600660006101000a81548173ffffffffffffffffffffffffffffffffffffffff021916908373ffffffffffffffffffffffffffffffffffffffff1602179055508173ffffffffffffffffffffffffffffffffffffffff168173ffffffffffffffffffffffffffffffffffffffff167f8be0079c531659141344cd1fd0a4f28419497f9722a3daafe3b4186f6b6457e060405160405180910390a35050565b600081519050919050565b7f4e487b7100000000000000000000000000000000000000000000000000000000600052604160045260246000fd5b7f4e487b7100000000000000000000000000000000000000000000000000000000600052602260045260246000fd5b600060028204905060018216806200023257607f821691505b602082108103620002485762000247620001ea565b5b50919050565b60008190508160005260206000209050919050565b60006020601f8301049050919050565b600082821b905092915050565b600060088302620002b27fffffffffffffffffffffffffffffffffffffffffffffffffffffffffffffffff8262000273565b620002be868362000273565b95508019841693508086168417925050509392505050565b6000819050919050565b6000819050919050565b60006200030b62000305620002ff84620002d6565b620002e0565b620002d6565b9050919050565b6000819050919050565b6200032783620002ea565b6200033f620003368262000312565b84845462000280565b825550505050565b600090565b6200035662000347565b620003638184846200031c565b505050565b5b818110156200038b576200037f6000826200034c565b60018101905062000369565b5050565b601f821115620003da57620003a4816200024e565b620003af8462000263565b81016020851015620003bf578190505b620003d7620003ce8562000263565b83018262000368565b50505b505050565b600082821c905092915050565b6000620003ff60001984600802620003df565b1980831691505092915050565b60006200041a8383620003ec565b9150826002028217905092915050565b6200043582620001b0565b67ffffffffffffffff811115620004515762000450620001bb565b5b6200045d825462000219565b6200046a8282856200038f565b600060209050601f831160018114620004a257600084156200048d578287015190505b6200049985826200040c565b86555062000509565b601f198416620004b2866200024e565b60005b82811015620004dc57848901518255600182019150602085019450602081019050620004b5565b86831015620004fc5784890151620004f8601f891682620003ec565b8355505b6001600288020188555050505b505050505050565b61376a80620005216000396000f3fe6080604052600436106101815760003560e01c80638da5cb5b116100d1578063b88d4fde1161008a578063e086e5ec11610064578063e086e5ec14610575578063e0df5b6f1461058c578063e985e9c5146105b5578063f2fde38b146105f257610181565b8063b88d4fde146104e4578063c87b56dd1461050d578063d5abeb011461054a57610181565b80638da5cb5b146103e357806393ecb0c61461040e57806395d89b411461044b5780639b7c1c8314610476578063a0712d681461049f578063a22cb465146104bb57610181565b806323b872dd1161013e5780636352211e116101185780636352211e146103275780636817c76c1461036457806370a082311461038f578063715018a6146103cc57610181565b806323b872dd146102aa57806342842e0e146102d3578063453c2310146102fc57610181565b80630116bc2d1461018657806301ffc9a7146101b157806306fdde03146101ee578063081812fc14610219578063095ea7b31461025657806318160ddd1461027f575b600080fd5b34801561019257600080fd5b5061019b61061b565b6040516101a89190612193565b60405180910390f35b3480156101bd57600080fd5b506101d860048036038101906101d3919061221a565b61062e565b6040516101e59190612193565b60405180910390f35b3480156101fa57600080fd5b50610203610710565b60405161021091906122d7565b60405180910390f35b34801561022557600080fd5b50610240600480360381019061023b919061232f565b6107a2565b60405161024d919061239d565b60405180910390f35b34801561026257600080fd5b5061027d600480360381019061027891906123e4565b6107e8565b005b34801561028b57600080fd5b506102946108ff565b6040516102a19190612433565b60405180910390f35b3480156102b657600080fd5b506102d160048036038101906102cc919061244e565b610905565b005b3480156102df57600080fd5b506102fa60048036038101906102f5919061244e565b610965565b005b34801561030857600080fd5b50610311610985565b60405161031e9190612433565b60405180910390f35b34801561033357600080fd5b5061034e6004803603810190610349919061232f565b61098b565b60405161035b919061239d565b60405180910390f35b34801561037057600080fd5b50610379610a11565b6040516103869190612433565b60405180910390f35b34801561039b57600080fd5b506103b660048036038101906103b191906124a1565b610a17565b6040516103c39190612433565b60405180910390f35b3480156103d857600080fd5b506103e1610ace565b005b3480156103ef57600080fd5b506103f8610ae2565b604051610405919061239d565b60405180910390f35b34801561041a57600080fd5b50610435600480360381019061043091906124a1565b610b0c565b6040516104429190612433565b60405180910390f35b34801561045757600080fd5b50610460610b24565b60405161046d91906122d7565b60405180910390f35b34801561048257600080fd5b5061049d600480360381019061049891906124fa565b610bb6565b005b6104b960048036038101906104b4919061232f565b610bdb565b005b3480156104c757600080fd5b506104e260048036038101906104dd9190612527565b610df5565b005b3480156104f057600080fd5b5061050b6004803603810190610506919061269c565b610e0b565b005b34801561051957600080fd5b50610534600480360381019061052f919061232f565b610e6d565b60405161054191906122d7565b60405180910390f35b34801561055657600080fd5b5061055f610ed5565b60405161056c9190612433565b60405180910390f35b34801561058157600080fd5b5061058a610edb565b005b34801561059857600080fd5b506105b360048036038101906105ae91906127c0565b610f99565b005b3480156105c157600080fd5b506105dc60048036038101906105d79190612809565b610fb4565b6040516105e99190612193565b60405180910390f35b3480156105fe57600080fd5b50610619600480360381019061061491906124a1565b611048565b005b600b60009054906101000a900460ff1681565b60007f80ac58cd000000000000000000000000000000000000000000000000000000007bffffffffffffffffffffffffffffffffffffffffffffffffffffffff1916827bffffffffffffffffffffffffffffffffffffffffffffffffffffffff191614806106f957507f5b5e139f000000000000000000000000000000000000000000000000000000007bffffffffffffffffffffffffffffffffffffffffffffffffffffffff1916827bffffffffffffffffffffffffffffffffffffffffffffffffffffffff1916145b806107095750610708826110cb565b5b9050919050565b60606000805461071f90612878565b80601f016020809104026020016040519081016040528092919081815260200182805461074b90612878565b80156107985780601f1061076d57610100808354040283529160200191610798565b820191906000526020600020905b81548152906001019060200180831161077b57829003601f168201915b5050505050905090565b60006107ad82611135565b6004600083815260200190815260200160002060009054906101000a900473ffffffffffffffffffffffffffffffffffffffff169050919050565b60006107f38261098b565b90508073ffffffffffffffffffffffffffffffffffffffff168373ffffffffffffffffffffffffffffffffffffffff1603610863576040517f08c379a000000000000000000000000000000000000000000000000000000000815260040161085a9061291b565b60405180910390fd5b8073ffffffffffffffffffffffffffffffffffffffff16610882611180565b73ffffffffffffffffffffffffffffffffffffffff1614806108b157506108b0816108ab611180565b610fb4565b5b6108f0576040517f08c379a00000000000000000000000000000000000000000000000000000000081526004016108e7906129ad565b60405180910390fd5b6108fa8383611188565b505050565b60085481565b610916610910611180565b82611241565b610955576040517f08c379a000000000000000000000000000000000000000000000000000000000815260040161094c90612a3f565b60405180910390fd5b6109608383836112d6565b505050565b61098083838360405180602001604052806000815250610e0b565b505050565b600a5481565b600080610997836115cf565b9050600073ffffffffffffffffffffffffffffffffffffffff168173ffffffffffffffffffffffffffffffffffffffff1603610a08576040517f08c379a00000000000000000000000000000000000000000000000000000000081526004016109ff90612aab565b60405180910390fd5b80915050919050565b60075481565b60008073ffffffffffffffffffffffffffffffffffffffff168273ffffffffffffffffffffffffffffffffffffffff1603610a87576040517f08c379a0000000000000000000000000000000000000000000000000000000008152600401610a7e90612b3d565b60405180910390fd5b600360008373ffffffffffffffffffffffffffffffffffffffff1673ffffffffffffffffffffffffffffffffffffffff168152602001908152602001600020549050919050565b610ad661160c565b610ae0600061168a565b565b6000600660009054906101000a900473ffffffffffffffffffffffffffffffffffffffff16905090565b600d6020528060005260406000206000915090505481565b606060018054610b3390612878565b80601f0160208091040260200160405190810160405280929190818152602001828054610b5f90612878565b8015610bac5780601f10610b8157610100808354040283529160200191610bac565b820191906000526020600020905b815481529060010190602001808311610b8f57829003601f168201915b5050505050905090565b610bbe61160c565b80600b60006101000a81548160ff02191690831515021790555050565b60008111610c1e576040517f08c379a0000000000000000000000000000000000000000000000000000000008152600401610c1590612ba9565b60405180910390fd5b600b60009054906101000a900460ff16610c6d576040517f08c379a0000000000000000000000000000000000000000000000000000000008152600401610c6490612c15565b60405180910390fd5b600a5481600d60003373ffffffffffffffffffffffffffffffffffffffff1673ffffffffffffffffffffffffffffffffffffffff16815260200190815260200160002054610cbb9190612c64565b1115610cfc576040517f08c379a0000000000000000000000000000000000000000000000000000000008152600401610cf390612ce4565b60405180910390fd5b60095481600854610d0d9190612c64565b1115610d4e576040517f08c379a0000000000000000000000000000000000000000000000000000000008152600401610d4590612d50565b60405180910390fd5b60075481610d5c9190612d70565b3414610d9d576040517f08c379a0000000000000000000000000000000000000000000000000000000008152600401610d9490612dfe565b60405180910390fd5b60005b81811015610df15760006001600854610db99190612c64565b905060086000815480929190610dce90612e1e565b9190505550610ddd3382611750565b508080610de990612e1e565b915050610da0565b5050565b610e07610e00611180565b838361176e565b5050565b610e1c610e16611180565b83611241565b610e5b576040517f08c379a0000000000000000000000000000000000000000000000000000000008152600401610e5290612a3f565b60405180910390fd5b610e67848484846118da565b50505050565b6060610e7882611135565b6000610e82611936565b90506000815111610ea25760405180602001604052806000815250610ecd565b80610eac846119c8565b604051602001610ebd929190612ea2565b6040516020818303038152906040525b915050919050565b60095481565b610ee361160c565b6000610eed610ae2565b73ffffffffffffffffffffffffffffffffffffffff1647604051610f1090612ef7565b60006040518083038185875af1925050503d8060008114610f4d576040519150601f19603f3d011682016040523d82523d6000602084013e610f52565b606091505b5050905080610f96576040517f08c379a0000000000000000000000000000000000000000000000000000000008152600401610f8d90612f58565b60405180910390fd5b50565b610fa161160c565b80600c9081610fb09190613124565b5050565b6000600560008473ffffffffffffffffffffffffffffffffffffffff1673ffffffffffffffffffffffffffffffffffffffff16815260200190815260200160002060008373ffffffffffffffffffffffffffffffffffffffff1673ffffffffffffffffffffffffffffffffffffffff16815260200190815260200160002060009054906101000a900460ff16905092915050565b61105061160c565b600073ffffffffffffffffffffffffffffffffffffffff168173ffffffffffffffffffffffffffffffffffffffff16036110bf576040517f08c379a00000000000000000000000000000000000000000000000000000000081526004016110b690613268565b60405180910390fd5b6110c88161168a565b50565b60007f01ffc9a7000000000000000000000000000000000000000000000000000000007bffffffffffffffffffffffffffffffffffffffffffffffffffffffff1916827bffffffffffffffffffffffffffffffffffffffffffffffffffffffff1916149050919050565b61113e81611a96565b61117d576040517f08c379a000000000000000000000000000000000000000000000000000000000815260040161117490612aab565b60405180910390fd5b50565b600033905090565b816004600083815260200190815260200160002060006101000a81548173ffffffffffffffffffffffffffffffffffffffff021916908373ffffffffffffffffffffffffffffffffffffffff160217905550808273ffffffffffffffffffffffffffffffffffffffff166111fb8361098b565b73ffffffffffffffffffffffffffffffffffffffff167f8c5be1e5ebec7d5bd14f71427d1e84f3dd0314c0f7b2291e5b200ac8c7c3b92560405160405180910390a45050565b60008061124d8361098b565b90508073ffffffffffffffffffffffffffffffffffffffff168473ffffffffffffffffffffffffffffffffffffffff16148061128f575061128e8185610fb4565b5b806112cd57508373ffffffffffffffffffffffffffffffffffffffff166112b5846107a2565b73ffffffffffffffffffffffffffffffffffffffff16145b91505092915050565b8273ffffffffffffffffffffffffffffffffffffffff166112f68261098b565b73ffffffffffffffffffffffffffffffffffffffff161461134c576040517f08c379a0000000000000000000000000000000000000000000000000000000008152600401611343906132fa565b60405180910390fd5b600073ffffffffffffffffffffffffffffffffffffffff168273ffffffffffffffffffffffffffffffffffffffff16036113bb576040517f08c379a00000000000000000000000000000000000000000000000000000000081526004016113b29061338c565b60405180910390fd5b6113c88383836001611ad7565b8273ffffffffffffffffffffffffffffffffffffffff166113e88261098b565b73ffffffffffffffffffffffffffffffffffffffff161461143e576040517f08c379a0000000000000000000000000000000000000000000000000000000008152600401611435906132fa565b60405180910390fd5b6004600082815260200190815260200160002060006101000a81549073ffffffffffffffffffffffffffffffffffffffff02191690556001600360008573ffffffffffffffffffffffffffffffffffffffff1673ffffffffffffffffffffffffffffffffffffffff168152602001908152602001600020600082825403925050819055506001600360008473ffffffffffffffffffffffffffffffffffffffff1673ffffffffffffffffffffffffffffffffffffffff16815260200190815260200160002060008282540192505081905550816002600083815260200190815260200160002060006101000a81548173ffffffffffffffffffffffffffffffffffffffff021916908373ffffffffffffffffffffffffffffffffffffffff160217905550808273ffffffffffffffffffffffffffffffffffffffff168473ffffffffffffffffffffffffffffffffffffffff167fddf252ad1be2c89b69c2b068fc378daa952ba7f163c4a11628f55a4df523b3ef60405160405180910390a46115ca8383836001611bfd565b505050565b60006002600083815260200190815260200160002060009054906101000a900473ffffffffffffffffffffffffffffffffffffffff169050919050565b611614611180565b73ffffffffffffffffffffffffffffffffffffffff16611632610ae2565b73ffffffffffffffffffffffffffffffffffffffff1614611688576040517f08c379a000000000000000000000000000000000000000000000000000000000815260040161167f906133f8565b60405180910390fd5b565b6000600660009054906101000a900473ffffffffffffffffffffffffffffffffffffffff16905081600660006101000a81548173ffffffffffffffffffffffffffffffffffffffff021916908373ffffffffffffffffffffffffffffffffffffffff1602179055508173ffffffffffffffffffffffffffffffffffffffff168173ffffffffffffffffffffffffffffffffffffffff167f8be0079c531659141344cd1fd0a4f28419497f9722a3daafe3b4186f6b6457e060405160405180910390a35050565b61176a828260405180602001604052806000815250611c03565b5050565b8173ffffffffffffffffffffffffffffffffffffffff168373ffffffffffffffffffffffffffffffffffffffff16036117dc576040517f08c379a00000000000000000000000000000000000000000000000000000000081526004016117d390613464565b60405180910390fd5b80600560008573ffffffffffffffffffffffffffffffffffffffff1673ffffffffffffffffffffffffffffffffffffffff16815260200190815260200160002060008473ffffffffffffffffffffffffffffffffffffffff1673ffffffffffffffffffffffffffffffffffffffff16815260200190815260200160002060006101000a81548160ff0219169083151502179055508173ffffffffffffffffffffffffffffffffffffffff168373ffffffffffffffffffffffffffffffffffffffff167f17307eab39ab6107e8899845ad3d59bd9653f200f220920489ca2b5937696c31836040516118cd9190612193565b60405180910390a3505050565b6118e58484846112d6565b6118f184848484611c5e565b611930576040517f08c379a0000000000000000000000000000000000000000000000000000000008152600401611927906134f6565b60405180910390fd5b50505050565b6060600c805461194590612878565b80601f016020809104026020016040519081016040528092919081815260200182805461197190612878565b80156119be5780601f10611993576101008083540402835291602001916119be565b820191906000526020600020905b8154815290600101906020018083116119a157829003601f168201915b5050505050905090565b6060600060016119d784611de5565b01905060008167ffffffffffffffff8111156119f6576119f5612571565b5b6040519080825280601f01601f191660200182016040528015611a285781602001600182028036833780820191505090505b509050600082602001820190505b600115611a8b578080600190039150507f3031323334353637383961626364656600000000000000000000000000000000600a86061a8153600a8581611a7f57611a7e613516565b5b04945060008503611a36575b819350505050919050565b60008073ffffffffffffffffffffffffffffffffffffffff16611ab8836115cf565b73ffffffffffffffffffffffffffffffffffffffff1614159050919050565b6001811115611bf757600073ffffffffffffffffffffffffffffffffffffffff168473ffffffffffffffffffffffffffffffffffffffff1614611b6b5780600360008673ffffffffffffffffffffffffffffffffffffffff1673ffffffffffffffffffffffffffffffffffffffff1681526020019081526020016000206000828254611b639190613545565b925050819055505b600073ffffffffffffffffffffffffffffffffffffffff168373ffffffffffffffffffffffffffffffffffffffff1614611bf65780600360008573ffffffffffffffffffffffffffffffffffffffff1673ffffffffffffffffffffffffffffffffffffffff1681526020019081526020016000206000828254611bee9190612c64565b925050819055505b5b50505050565b50505050565b611c0d8383611f38565b611c1a6000848484611c5e565b611c59576040517f08c379a0000000000000000000000000000000000000000000000000000000008152600401611c50906134f6565b60405180910390fd5b505050565b6000611c7f8473ffffffffffffffffffffffffffffffffffffffff16612155565b15611dd8578373ffffffffffffffffffffffffffffffffffffffff1663150b7a02611ca8611180565b8786866040518563ffffffff1660e01b8152600401611cca94939291906135ce565b6020604051808303816000875af1925050508015611d0657506040513d601f19601f82011682018060405250810190611d03919061362f565b60015b611d88573d8060008114611d36576040519150601f19603f3d011682016040523d82523d6000602084013e611d3b565b606091505b506000815103611d80576040517f08c379a0000000000000000000000000000000000000000000000000000000008152600401611d77906134f6565b60405180910390fd5b805181602001fd5b63150b7a0260e01b7bffffffffffffffffffffffffffffffffffffffffffffffffffffffff1916817bffffffffffffffffffffffffffffffffffffffffffffffffffffffff191614915050611ddd565b600190505b949350505050565b600080600090507a184f03e93ff9f4daa797ed6e38ed64bf6a1f0100000000000000008310611e43577a184f03e93ff9f4daa797ed6e38ed64bf6a1f0100000000000000008381611e3957611e38613516565b5b0492506040810190505b6d04ee2d6d415b85acef81000000008310611e80576d04ee2d6d415b85acef81000000008381611e7657611e75613516565b5b0492506020810190505b662386f26fc100008310611eaf57662386f26fc100008381611ea557611ea4613516565b5b0492506010810190505b6305f5e1008310611ed8576305f5e1008381611ece57611ecd613516565b5b0492506008810190505b6127108310611efd576127108381611ef357611ef2613516565b5b0492506004810190505b60648310611f205760648381611f1657611f15613516565b5b0492506002810190505b600a8310611f2f576001810190505b80915050919050565b600073ffffffffffffffffffffffffffffffffffffffff168273ffffffffffffffffffffffffffffffffffffffff1603611fa7576040517f08c379a0000000000000000000000000000000000000000000000000000000008152600401611f9e906136a8565b60405180910390fd5b611fb081611a96565b15611ff0576040517f08c379a0000000000000000000000000000000000000000000000000000000008152600401611fe790613714565b60405180910390fd5b611ffe600083836001611ad7565b61200781611a96565b15612047576040517f08c379a000000000000000000000000000000000000000000000000000000000815260040161203e90613714565b60405180910390fd5b6001600360008473ffffffffffffffffffffffffffffffffffffffff1673ffffffffffffffffffffffffffffffffffffffff16815260200190815260200160002060008282540192505081905550816002600083815260200190815260200160002060006101000a81548173ffffffffffffffffffffffffffffffffffffffff021916908373ffffffffffffffffffffffffffffffffffffffff160217905550808273ffffffffffffffffffffffffffffffffffffffff16600073ffffffffffffffffffffffffffffffffffffffff167fddf252ad1be2c89b69c2b068fc378daa952ba7f163c4a11628f55a4df523b3ef60405160405180910390a4612151600083836001611bfd565b5050565b6000808273ffffffffffffffffffffffffffffffffffffffff163b119050919050565b60008115159050919050565b61218d81612178565b82525050565b60006020820190506121a86000830184612184565b92915050565b6000604051905090565b600080fd5b600080fd5b60007fffffffff0000000000000000000000000000000000000000000000000000000082169050919050565b6121f7816121c2565b811461220257600080fd5b50565b600081359050612214816121ee565b92915050565b6000602082840312156122305761222f6121b8565b5b600061223e84828501612205565b91505092915050565b600081519050919050565b600082825260208201905092915050565b60005b83811015612281578082015181840152602081019050612266565b60008484015250505050565b6000601f19601f8301169050919050565b60006122a982612247565b6122b38185612252565b93506122c3818560208601612263565b6122cc8161228d565b840191505092915050565b600060208201905081810360008301526122f1818461229e565b905092915050565b6000819050919050565b61230c816122f9565b811461231757600080fd5b50565b60008135905061232981612303565b92915050565b600060208284031215612345576123446121b8565b5b60006123538482850161231a565b91505092915050565b600073ffffffffffffffffffffffffffffffffffffffff82169050919050565b60006123878261235c565b9050919050565b6123978161237c565b82525050565b60006020820190506123b2600083018461238e565b92915050565b6123c18161237c565b81146123cc57600080fd5b50565b6000813590506123de816123b8565b92915050565b600080604083850312156123fb576123fa6121b8565b5b6000612409858286016123cf565b925050602061241a8582860161231a565b9150509250929050565b61242d816122f9565b82525050565b60006020820190506124486000830184612424565b92915050565b600080600060608486031215612467576124666121b8565b5b6000612475868287016123cf565b9350506020612486868287016123cf565b92505060406124978682870161231a565b9150509250925092565b6000602082840312156124b7576124b66121b8565b5b60006124c5848285016123cf565b91505092915050565b6124d781612178565b81146124e257600080fd5b50565b6000813590506124f4816124ce565b92915050565b6000602082840312156125105761250f6121b8565b5b600061251e848285016124e5565b91505092915050565b6000806040838503121561253e5761253d6121b8565b5b600061254c858286016123cf565b925050602061255d858286016124e5565b9150509250929050565b600080fd5b600080fd5b7f4e487b7100000000000000000000000000000000000000000000000000000000600052604160045260246000fd5b6125a98261228d565b810181811067ffffffffffffffff821117156125c8576125c7612571565b5b80604052505050565b60006125db6121ae565b90506125e782826125a0565b919050565b600067ffffffffffffffff82111561260757612606612571565b5b6126108261228d565b9050602081019050919050565b82818337600083830152505050565b600061263f61263a846125ec565b6125d1565b90508281526020810184848401111561265b5761265a61256c565b5b61266684828561261d565b509392505050565b600082601f83011261268357612682612567565b5b813561269384826020860161262c565b91505092915050565b600080600080608085870312156126b6576126b56121b8565b5b60006126c4878288016123cf565b94505060206126d5878288016123cf565b93505060406126e68782880161231a565b925050606085013567ffffffffffffffff811115612707576127066121bd565b5b6127138782880161266e565b91505092959194509250565b600067ffffffffffffffff82111561273a57612739612571565b5b6127438261228d565b9050602081019050919050565b600061276361275e8461271f565b6125d1565b90508281526020810184848401111561277f5761277e61256c565b5b61278a84828561261d565b509392505050565b600082601f8301126127a7576127a6612567565b5b81356127b7848260208601612750565b91505092915050565b6000602082840312156127d6576127d56121b8565b5b600082013567ffffffffffffffff8111156127f4576127f36121bd565b5b61280084828501612792565b91505092915050565b600080604083850312156128205761281f6121b8565b5b600061282e858286016123cf565b925050602061283f858286016123cf565b9150509250929050565b7f4e487b7100000000000000000000000000000000000000000000000000000000600052602260045260246000fd5b6000600282049050600182168061289057607f821691505b6020821081036128a3576128a2612849565b5b50919050565b7f4552433732313a20617070726f76616c20746f2063757272656e74206f776e6560008201527f7200000000000000000000000000000000000000000000000000000000000000602082015250565b6000612905602183612252565b9150612910826128a9565b604082019050919050565b60006020820190508181036000830152612934816128f8565b9050919050565b7f4552433732313a20617070726f76652063616c6c6572206973206e6f7420746f60008201527f6b656e206f776e6572206f7220617070726f76656420666f7220616c6c000000602082015250565b6000612997603d83612252565b91506129a28261293b565b604082019050919050565b600060208201905081810360008301526129c68161298a565b9050919050565b7f4552433732313a2063616c6c6572206973206e6f7420746f6b656e206f776e6560008201527f72206f7220617070726f76656400000000000000000000000000000000000000602082015250565b6000612a29602d83612252565b9150612a34826129cd565b604082019050919050565b60006020820190508181036000830152612a5881612a1c565b9050919050565b7f4552433732313a20696e76616c696420746f6b656e2049440000000000000000600082015250565b6000612a95601883612252565b9150612aa082612a5f565b602082019050919050565b60006020820190508181036000830152612ac481612a88565b9050919050565b7f4552433732313a2061646472657373207a65726f206973206e6f74206120766160008201527f6c6964206f776e65720000000000000000000000000000000000000000000000602082015250565b6000612b27602983612252565b9150612b3282612acb565b604082019050919050565b60006020820190508181036000830152612b5681612b1a565b9050919050565b7f4d696e696d756d207175616e746974792073686f756c64206265203100000000600082015250565b6000612b93601c83612252565b9150612b9e82612b5d565b602082019050919050565b60006020820190508181036000830152612bc281612b86565b9050919050565b7f5075626c6963206d696e74696e67206973206e6f7420656e61626c6564000000600082015250565b6000612bff601d83612252565b9150612c0a82612bc9565b602082019050919050565b60006020820190508181036000830152612c2e81612bf2565b9050919050565b7f4e487b7100000000000000000000000000000000000000000000000000000000600052601160045260246000fd5b6000612c6f826122f9565b9150612c7a836122f9565b9250828201905080821115612c9257612c91612c35565b5b92915050565b7f4d6178206d696e74207065722077616c6c657420657863656564656400000000600082015250565b6000612cce601c83612252565b9150612cd982612c98565b602082019050919050565b60006020820190508181036000830152612cfd81612cc1565b9050919050565b7f536f6c64206f7574000000000000000000000000000000000000000000000000600082015250565b6000612d3a600883612252565b9150612d4582612d04565b602082019050919050565b60006020820190508181036000830152612d6981612d2d565b9050919050565b6000612d7b826122f9565b9150612d86836122f9565b9250828202612d94816122f9565b91508282048414831517612dab57612daa612c35565b5b5092915050565b7f4e6f7420656e6f756768204554482073656e7400000000000000000000000000600082015250565b6000612de8601383612252565b9150612df382612db2565b602082019050919050565b60006020820190508181036000830152612e1781612ddb565b9050919050565b6000612e29826122f9565b91507fffffffffffffffffffffffffffffffffffffffffffffffffffffffffffffffff8203612e5b57612e5a612c35565b5b600182019050919050565b600081905092915050565b6000612e7c82612247565b612e868185612e66565b9350612e96818560208601612263565b80840191505092915050565b6000612eae8285612e71565b9150612eba8284612e71565b91508190509392505050565b600081905092915050565b50565b6000612ee1600083612ec6565b9150612eec82612ed1565b600082019050919050565b6000612f0282612ed4565b9150819050919050565b7f5472616e73666572204661696c65640000000000000000000000000000000000600082015250565b6000612f42600f83612252565b9150612f4d82612f0c565b602082019050919050565b60006020820190508181036000830152612f7181612f35565b9050919050565b60008190508160005260206000209050919050565b60006020601f8301049050919050565b600082821b905092915050565b600060088302612fda7fffffffffffffffffffffffffffffffffffffffffffffffffffffffffffffffff82612f9d565b612fe48683612f9d565b95508019841693508086168417925050509392505050565b6000819050919050565b600061302161301c613017846122f9565b612ffc565b6122f9565b9050919050565b6000819050919050565b61303b83613006565b61304f61304782613028565b848454612faa565b825550505050565b600090565b613064613057565b61306f818484613032565b505050565b5b818110156130935761308860008261305c565b600181019050613075565b5050565b601f8211156130d8576130a981612f78565b6130b284612f8d565b810160208510156130c1578190505b6130d56130cd85612f8d565b830182613074565b50505b505050565b600082821c905092915050565b60006130fb600019846008026130dd565b1980831691505092915050565b600061311483836130ea565b9150826002028217905092915050565b61312d82612247565b67ffffffffffffffff81111561314657613145612571565b5b6131508254612878565b61315b828285613097565b600060209050601f83116001811461318e576000841561317c578287015190505b6131868582613108565b8655506131ee565b601f19841661319c86612f78565b60005b828110156131c45784890151825560018201915060208501945060208101905061319f565b868310156131e157848901516131dd601f8916826130ea565b8355505b6001600288020188555050505b505050505050565b7f4f776e61626c653a206e6577206f776e657220697320746865207a65726f206160008201527f6464726573730000000000000000000000000000000000000000000000000000602082015250565b6000613252602683612252565b915061325d826131f6565b604082019050919050565b6000602082019050818103600083015261328181613245565b9050919050565b7f4552433732313a207472616e736665722066726f6d20696e636f72726563742060008201527f6f776e6572000000000000000000000000000000000000000000000000000000602082015250565b60006132e4602583612252565b91506132ef82613288565b604082019050919050565b60006020820190508181036000830152613313816132d7565b9050919050565b7f4552433732313a207472616e7366657220746f20746865207a65726f2061646460008201527f7265737300000000000000000000000000000000000000000000000000000000602082015250565b6000613376602483612252565b91506133818261331a565b604082019050919050565b600060208201905081810360008301526133a581613369565b9050919050565b7f4f776e61626c653a2063616c6c6572206973206e6f7420746865206f776e6572600082015250565b60006133e2602083612252565b91506133ed826133ac565b602082019050919050565b60006020820190508181036000830152613411816133d5565b9050919050565b7f4552433732313a20617070726f766520746f2063616c6c657200000000000000600082015250565b600061344e601983612252565b915061345982613418565b602082019050919050565b6000602082019050818103600083015261347d81613441565b9050919050565b7f4552433732313a207472616e7366657220746f206e6f6e20455243373231526560008201527f63656976657220696d706c656d656e7465720000000000000000000000000000602082015250565b60006134e0603283612252565b91506134eb82613484565b604082019050919050565b6000602082019050818103600083015261350f816134d3565b9050919050565b7f4e487b7100000000000000000000000000000000000000000000000000000000600052601260045260246000fd5b6000613550826122f9565b915061355b836122f9565b925082820390508181111561357357613572612c35565b5b92915050565b600081519050919050565b600082825260208201905092915050565b60006135a082613579565b6135aa8185613584565b93506135ba818560208601612263565b6135c38161228d565b840191505092915050565b60006080820190506135e3600083018761238e565b6135f0602083018661238e565b6135fd6040830185612424565b818103606083015261360f8184613595565b905095945050505050565b600081519050613629816121ee565b92915050565b600060208284031215613645576136446121b8565b5b60006136538482850161361a565b91505092915050565b7f4552433732313a206d696e7420746f20746865207a65726f2061646472657373600082015250565b6000613692602083612252565b915061369d8261365c565b602082019050919050565b600060208201905081810360008301526136c181613685565b9050919050565b7f4552433732313a20746f6b656e20616c7265616479206d696e74656400000000600082015250565b60006136fe601c83612252565b9150613709826136c8565b602082019050919050565b6000602082019050818103600083015261372d816136f1565b905091905056fea26469706673582212201b6e3b959389ef0aad1418d8a497afdd21eba3c924f51c1da0067b46bedccbd264736f6c63430008110033",
  "linkReferences": {},
  "deployedLinkReferences": {}
}